{
  "_format": "hh-sol-artifact-1",
  "contractName": "LendNSST",
  "sourceName": "contracts/LendNSST.sol",
  "abi": [
    {
      "inputs": [],
      "stateMutability": "nonpayable",
      "type": "constructor"
    },
    {
      "stateMutability": "nonpayable",
      "type": "fallback"
    },
    {
      "inputs": [
        {
          "internalType": "address",
          "name": "from",
          "type": "address"
        },
        {
          "internalType": "uint256",
          "name": "amount",
          "type": "uint256"
        }
      ],
      "name": "burn",
      "outputs": [],
      "stateMutability": "nonpayable",
      "type": "function"
    },
    {
      "inputs": [
        {
          "internalType": "uint256",
          "name": "_amountInUSD",
          "type": "uint256"
        }
      ],
      "name": "depositEther",
      "outputs": [],
      "stateMutability": "payable",
      "type": "function"
    },
    {
      "inputs": [],
      "name": "getName",
      "outputs": [
        {
          "internalType": "string",
          "name": "",
          "type": "string"
        }
      ],
      "stateMutability": "pure",
      "type": "function"
    },
    {
      "inputs": [
        {
          "internalType": "address",
          "name": "to",
          "type": "address"
        },
        {
          "internalType": "uint256",
          "name": "amount",
          "type": "uint256"
        }
      ],
      "name": "mint",
      "outputs": [],
      "stateMutability": "nonpayable",
      "type": "function"
    },
    {
      "inputs": [
        {
          "internalType": "address",
          "name": "",
          "type": "address"
        }
      ],
      "name": "status",
      "outputs": [
        {
          "internalType": "uint256",
          "name": "colleteral",
          "type": "uint256"
        },
        {
          "internalType": "uint256",
          "name": "debt",
          "type": "uint256"
        }
      ],
      "stateMutability": "view",
      "type": "function"
    },
    {
      "inputs": [
        {
          "internalType": "uint256",
          "name": "_repayEth",
          "type": "uint256"
        },
        {
          "internalType": "uint256",
          "name": "_tokens",
          "type": "uint256"
        }
      ],
      "name": "withDrawEther",
      "outputs": [],
      "stateMutability": "nonpayable",
      "type": "function"
    },
    {
      "stateMutability": "payable",
      "type": "receive"
    }
  ],
  "bytecode": "0x60806040527303cb0e12b4466a6b5c5d7815d26c267d2b8d2c7c6000806101000a81548173ffffffffffffffffffffffffffffffffffffffff021916908373ffffffffffffffffffffffffffffffffffffffff160217905550600180556200009260016200007e600180546200010a60201b620004ce1790919060201c565b6200018e60201b620005491790919060201c565b600455348015620000a257600080fd5b5060008054906101000a900473ffffffffffffffffffffffffffffffffffffffff16600360006101000a81548173ffffffffffffffffffffffffffffffffffffffff021916908373ffffffffffffffffffffffffffffffffffffffff160217905550620004a9565b6000808314156200011f576000905062000188565b600082846200012f91906200034a565b905082848262000140919062000312565b1462000183576040517f08c379a00000000000000000000000000000000000000000000000000000000081526004016200017a90620002d4565b60405180910390fd5b809150505b92915050565b6000620001d883836040518060400160405280601a81526020017f536166654d6174683a206469766973696f6e206279207a65726f000000000000815250620001e060201b60201c565b905092915050565b600080831182906200022a576040517f08c379a0000000000000000000000000000000000000000000000000000000008152600401620002219190620002b0565b60405180910390fd5b50600083856200023b919062000312565b9050809150509392505050565b60006200025582620002f6565b62000261818562000301565b935062000273818560208601620003b5565b6200027e8162000449565b840191505092915050565b60006200029860218362000301565b9150620002a5826200045a565b604082019050919050565b60006020820190508181036000830152620002cc818462000248565b905092915050565b60006020820190508181036000830152620002ef8162000289565b9050919050565b600081519050919050565b600082825260208201905092915050565b60006200031f82620003ab565b91506200032c83620003ab565b9250826200033f576200033e6200041a565b5b828204905092915050565b60006200035782620003ab565b91506200036483620003ab565b9250817fffffffffffffffffffffffffffffffffffffffffffffffffffffffffffffffff0483118215151615620003a0576200039f620003eb565b5b828202905092915050565b6000819050919050565b60005b83811015620003d5578082015181840152602081019050620003b8565b83811115620003e5576000848401525b50505050565b7f4e487b7100000000000000000000000000000000000000000000000000000000600052601160045260246000fd5b7f4e487b7100000000000000000000000000000000000000000000000000000000600052601260045260246000fd5b6000601f19601f8301169050919050565b7f536166654d6174683a206d756c7469706c69636174696f6e206f766572666c6f60008201527f7700000000000000000000000000000000000000000000000000000000000000602082015250565b610aba80620004b96000396000f3fe6080604052600436106100595760003560e01c806317d7de7c1461006f57806326839f171461009a57806340c10f19146100b6578063645b8b1b146100df5780639dc29fac1461011d578063e0e5853e1461014657610060565b3661006057005b34801561006c57600080fd5b50005b34801561007b57600080fd5b5061008461016f565b604051610091919061078d565b60405180910390f35b6100b460048036038101906100af9190610685565b6101ac565b005b3480156100c257600080fd5b506100dd60048036038101906100d89190610649565b610303565b005b3480156100eb57600080fd5b5061010660048036038101906101019190610620565b610307565b6040516101149291906107cf565b60405180910390f35b34801561012957600080fd5b50610144600480360381019061013f9190610649565b61032b565b005b34801561015257600080fd5b5061016d600480360381019061016891906106ae565b61032f565b005b60606040518060400160405280600881526020017f4c656e644e535354000000000000000000000000000000000000000000000000815250905090565b80600260003373ffffffffffffffffffffffffffffffffffffffff1673ffffffffffffffffffffffffffffffffffffffff16815260200190815260200160002060010160008282546101fe9190610814565b9250508190555034600260003373ffffffffffffffffffffffffffffffffffffffff1673ffffffffffffffffffffffffffffffffffffffff16815260200190815260200160002060000160008282546102579190610814565b92505081905550600360009054906101000a900473ffffffffffffffffffffffffffffffffffffffff1673ffffffffffffffffffffffffffffffffffffffff166340c10f193383670de0b6b3a76400006102b1919061089b565b6040518363ffffffff1660e01b81526004016102ce929190610764565b600060405180830381600087803b1580156102e857600080fd5b505af11580156102fc573d6000803e3d6000fd5b5050505050565b5050565b60026020528060005260406000206000915090508060000154908060010154905082565b5050565b80600260003373ffffffffffffffffffffffffffffffffffffffff1673ffffffffffffffffffffffffffffffffffffffff168152602001908152602001600020600101600082825461038191906108f5565b9250508190555081600260003373ffffffffffffffffffffffffffffffffffffffff1673ffffffffffffffffffffffffffffffffffffffff16815260200190815260200160002060000160008282546103da91906108f5565b92505081905550600360009054906101000a900473ffffffffffffffffffffffffffffffffffffffff1673ffffffffffffffffffffffffffffffffffffffff16639dc29fac3383670de0b6b3a7640000610434919061089b565b6040518363ffffffff1660e01b8152600401610451929190610764565b600060405180830381600087803b15801561046b57600080fd5b505af115801561047f573d6000803e3d6000fd5b505050503373ffffffffffffffffffffffffffffffffffffffff166108fc839081150290604051600060405180830381858888f193505050501580156104c9573d6000803e3d6000fd5b505050565b6000808314156104e15760009050610543565b600082846104ef919061089b565b90508284826104fe919061086a565b1461053e576040517f08c379a0000000000000000000000000000000000000000000000000000000008152600401610535906107af565b60405180910390fd5b809150505b92915050565b600061058b83836040518060400160405280601a81526020017f536166654d6174683a206469766973696f6e206279207a65726f000000000000815250610593565b905092915050565b600080831182906105da576040517f08c379a00000000000000000000000000000000000000000000000000000000081526004016105d1919061078d565b60405180910390fd5b50600083856105e9919061086a565b9050809150509392505050565b60008135905061060581610a56565b92915050565b60008135905061061a81610a6d565b92915050565b60006020828403121561063257600080fd5b6000610640848285016105f6565b91505092915050565b6000806040838503121561065c57600080fd5b600061066a858286016105f6565b925050602061067b8582860161060b565b9150509250929050565b60006020828403121561069757600080fd5b60006106a58482850161060b565b91505092915050565b600080604083850312156106c157600080fd5b60006106cf8582860161060b565b92505060206106e08582860161060b565b9150509250929050565b6106f381610929565b82525050565b6000610704826107f8565b61070e8185610803565b935061071e818560208601610965565b610727816109f6565b840191505092915050565b600061073f602183610803565b915061074a82610a07565b604082019050919050565b61075e8161095b565b82525050565b600060408201905061077960008301856106ea565b6107866020830184610755565b9392505050565b600060208201905081810360008301526107a781846106f9565b905092915050565b600060208201905081810360008301526107c881610732565b9050919050565b60006040820190506107e46000830185610755565b6107f16020830184610755565b9392505050565b600081519050919050565b600082825260208201905092915050565b600061081f8261095b565b915061082a8361095b565b9250827fffffffffffffffffffffffffffffffffffffffffffffffffffffffffffffffff0382111561085f5761085e610998565b5b828201905092915050565b60006108758261095b565b91506108808361095b565b9250826108905761088f6109c7565b5b828204905092915050565b60006108a68261095b565b91506108b18361095b565b9250817fffffffffffffffffffffffffffffffffffffffffffffffffffffffffffffffff04831182151516156108ea576108e9610998565b5b828202905092915050565b60006109008261095b565b915061090b8361095b565b92508282101561091e5761091d610998565b5b828203905092915050565b60006109348261093b565b9050919050565b600073ffffffffffffffffffffffffffffffffffffffff82169050919050565b6000819050919050565b60005b83811015610983578082015181840152602081019050610968565b83811115610992576000848401525b50505050565b7f4e487b7100000000000000000000000000000000000000000000000000000000600052601160045260246000fd5b7f4e487b7100000000000000000000000000000000000000000000000000000000600052601260045260246000fd5b6000601f19601f8301169050919050565b7f536166654d6174683a206d756c7469706c69636174696f6e206f766572666c6f60008201527f7700000000000000000000000000000000000000000000000000000000000000602082015250565b610a5f81610929565b8114610a6a57600080fd5b50565b610a768161095b565b8114610a8157600080fd5b5056fea2646970667358221220555c9be76c59a1ff467c93cb0cb67d56ac7148576fb526505abd6c1ebea222d064736f6c63430008010033",
  "linkReferences": {},
  "deployedLinkReferences": {}
}