{
  "_format": "hh-sol-artifact-1",
  "contractName": "LendNSST",
  "sourceName": "contracts/LendNSST.sol",
  "abi": [
    {
      "inputs": [],
      "stateMutability": "nonpayable",
      "type": "constructor"
    },
    {
      "stateMutability": "nonpayable",
      "type": "fallback"
    },
    {
      "inputs": [
        {
          "internalType": "address",
          "name": "from",
          "type": "address"
        },
        {
          "internalType": "uint256",
          "name": "amount",
          "type": "uint256"
        }
      ],
      "name": "burn",
      "outputs": [],
      "stateMutability": "nonpayable",
      "type": "function"
    },
    {
      "inputs": [
        {
          "internalType": "uint256",
          "name": "_amountInUSD",
          "type": "uint256"
        }
      ],
      "name": "depositEther",
      "outputs": [],
      "stateMutability": "payable",
      "type": "function"
    },
    {
      "inputs": [],
      "name": "getName",
      "outputs": [
        {
          "internalType": "string",
          "name": "",
          "type": "string"
        }
      ],
      "stateMutability": "pure",
      "type": "function"
    },
    {
      "inputs": [
        {
          "internalType": "address",
          "name": "to",
          "type": "address"
        },
        {
          "internalType": "uint256",
          "name": "amount",
          "type": "uint256"
        }
      ],
      "name": "mint",
      "outputs": [],
      "stateMutability": "nonpayable",
      "type": "function"
    },
    {
      "inputs": [
        {
          "internalType": "address",
          "name": "",
          "type": "address"
        }
      ],
      "name": "status",
      "outputs": [
        {
          "internalType": "uint256",
          "name": "colleteral",
          "type": "uint256"
        },
        {
          "internalType": "uint256",
          "name": "debt",
          "type": "uint256"
        }
      ],
      "stateMutability": "view",
      "type": "function"
    },
    {
      "inputs": [
        {
          "internalType": "uint256",
          "name": "_repayEth",
          "type": "uint256"
        },
        {
          "internalType": "uint256",
          "name": "_tokens",
          "type": "uint256"
        }
      ],
      "name": "withDrawEther",
      "outputs": [],
      "stateMutability": "nonpayable",
      "type": "function"
    },
    {
      "stateMutability": "payable",
      "type": "receive"
    }
  ],
  "bytecode": "0x60806040527303cb0e12b4466a6b5c5d7815d26c267d2b8d2c7c6000806101000a81548173ffffffffffffffffffffffffffffffffffffffff021916908373ffffffffffffffffffffffffffffffffffffffff160217905550600180556200009260016200007e600180546200010a60201b6200050a1790919060201c565b6200018e60201b620005851790919060201c565b600455348015620000a257600080fd5b5060008054906101000a900473ffffffffffffffffffffffffffffffffffffffff16600360006101000a81548173ffffffffffffffffffffffffffffffffffffffff021916908373ffffffffffffffffffffffffffffffffffffffff160217905550620004a9565b6000808314156200011f576000905062000188565b600082846200012f91906200034a565b905082848262000140919062000312565b1462000183576040517f08c379a00000000000000000000000000000000000000000000000000000000081526004016200017a90620002d4565b60405180910390fd5b809150505b92915050565b6000620001d883836040518060400160405280601a81526020017f536166654d6174683a206469766973696f6e206279207a65726f000000000000815250620001e060201b60201c565b905092915050565b600080831182906200022a576040517f08c379a0000000000000000000000000000000000000000000000000000000008152600401620002219190620002b0565b60405180910390fd5b50600083856200023b919062000312565b9050809150509392505050565b60006200025582620002f6565b62000261818562000301565b935062000273818560208601620003b5565b6200027e8162000449565b840191505092915050565b60006200029860218362000301565b9150620002a5826200045a565b604082019050919050565b60006020820190508181036000830152620002cc818462000248565b905092915050565b60006020820190508181036000830152620002ef8162000289565b9050919050565b600081519050919050565b600082825260208201905092915050565b60006200031f82620003ab565b91506200032c83620003ab565b9250826200033f576200033e6200041a565b5b828204905092915050565b60006200035782620003ab565b91506200036483620003ab565b9250817fffffffffffffffffffffffffffffffffffffffffffffffffffffffffffffffff0483118215151615620003a0576200039f620003eb565b5b828202905092915050565b6000819050919050565b60005b83811015620003d5578082015181840152602081019050620003b8565b83811115620003e5576000848401525b50505050565b7f4e487b7100000000000000000000000000000000000000000000000000000000600052601160045260246000fd5b7f4e487b7100000000000000000000000000000000000000000000000000000000600052601260045260246000fd5b6000601f19601f8301169050919050565b7f536166654d6174683a206d756c7469706c69636174696f6e206f766572666c6f60008201527f7700000000000000000000000000000000000000000000000000000000000000602082015250565b610af680620004b96000396000f3fe6080604052600436106100595760003560e01c806317d7de7c1461006f57806326839f171461009a57806340c10f19146100b6578063645b8b1b146100df5780639dc29fac1461011d578063e0e5853e1461014657610060565b3661006057005b34801561006c57600080fd5b50005b34801561007b57600080fd5b5061008461016f565b60405161009191906107c9565b60405180910390f35b6100b460048036038101906100af91906106c1565b6101ac565b005b3480156100c257600080fd5b506100dd60048036038101906100d89190610685565b610321565b005b3480156100eb57600080fd5b506101066004803603810190610101919061065c565b610325565b60405161011492919061080b565b60405180910390f35b34801561012957600080fd5b50610144600480360381019061013f9190610685565b610349565b005b34801561015257600080fd5b5061016d600480360381019061016891906106ea565b61034d565b005b60606040518060400160405280600881526020017f4c656e644e535354000000000000000000000000000000000000000000000000815250905090565b6305f5e100816101bc91906108a6565b600260003373ffffffffffffffffffffffffffffffffffffffff1673ffffffffffffffffffffffffffffffffffffffff168152602001908152602001600020600101600082825461020d9190610850565b9250508190555034600260003373ffffffffffffffffffffffffffffffffffffffff1673ffffffffffffffffffffffffffffffffffffffff16815260200190815260200160002060000160008282546102669190610850565b92505081905550600360009054906101000a900473ffffffffffffffffffffffffffffffffffffffff1673ffffffffffffffffffffffffffffffffffffffff166340c10f19336305f5e100846102bc91906108a6565b670de0b6b3a76400006102cf91906108d7565b6040518363ffffffff1660e01b81526004016102ec9291906107a0565b600060405180830381600087803b15801561030657600080fd5b505af115801561031a573d6000803e3d6000fd5b5050505050565b5050565b60026020528060005260406000206000915090508060000154908060010154905082565b5050565b6305f5e1008161035d91906108a6565b600260003373ffffffffffffffffffffffffffffffffffffffff1673ffffffffffffffffffffffffffffffffffffffff16815260200190815260200160002060010160008282546103ae9190610931565b9250508190555081600260003373ffffffffffffffffffffffffffffffffffffffff1673ffffffffffffffffffffffffffffffffffffffff16815260200190815260200160002060000160008282546104079190610931565b92505081905550600360009054906101000a900473ffffffffffffffffffffffffffffffffffffffff1673ffffffffffffffffffffffffffffffffffffffff16639dc29fac336305f5e1008461045d91906108a6565b670de0b6b3a764000061047091906108d7565b6040518363ffffffff1660e01b815260040161048d9291906107a0565b600060405180830381600087803b1580156104a757600080fd5b505af11580156104bb573d6000803e3d6000fd5b505050503373ffffffffffffffffffffffffffffffffffffffff166108fc839081150290604051600060405180830381858888f19350505050158015610505573d6000803e3d6000fd5b505050565b60008083141561051d576000905061057f565b6000828461052b91906108d7565b905082848261053a91906108a6565b1461057a576040517f08c379a0000000000000000000000000000000000000000000000000000000008152600401610571906107eb565b60405180910390fd5b809150505b92915050565b60006105c783836040518060400160405280601a81526020017f536166654d6174683a206469766973696f6e206279207a65726f0000000000008152506105cf565b905092915050565b60008083118290610616576040517f08c379a000000000000000000000000000000000000000000000000000000000815260040161060d91906107c9565b60405180910390fd5b506000838561062591906108a6565b9050809150509392505050565b60008135905061064181610a92565b92915050565b60008135905061065681610aa9565b92915050565b60006020828403121561066e57600080fd5b600061067c84828501610632565b91505092915050565b6000806040838503121561069857600080fd5b60006106a685828601610632565b92505060206106b785828601610647565b9150509250929050565b6000602082840312156106d357600080fd5b60006106e184828501610647565b91505092915050565b600080604083850312156106fd57600080fd5b600061070b85828601610647565b925050602061071c85828601610647565b9150509250929050565b61072f81610965565b82525050565b600061074082610834565b61074a818561083f565b935061075a8185602086016109a1565b61076381610a32565b840191505092915050565b600061077b60218361083f565b915061078682610a43565b604082019050919050565b61079a81610997565b82525050565b60006040820190506107b56000830185610726565b6107c26020830184610791565b9392505050565b600060208201905081810360008301526107e38184610735565b905092915050565b600060208201905081810360008301526108048161076e565b9050919050565b60006040820190506108206000830185610791565b61082d6020830184610791565b9392505050565b600081519050919050565b600082825260208201905092915050565b600061085b82610997565b915061086683610997565b9250827fffffffffffffffffffffffffffffffffffffffffffffffffffffffffffffffff0382111561089b5761089a6109d4565b5b828201905092915050565b60006108b182610997565b91506108bc83610997565b9250826108cc576108cb610a03565b5b828204905092915050565b60006108e282610997565b91506108ed83610997565b9250817fffffffffffffffffffffffffffffffffffffffffffffffffffffffffffffffff0483118215151615610926576109256109d4565b5b828202905092915050565b600061093c82610997565b915061094783610997565b92508282101561095a576109596109d4565b5b828203905092915050565b600061097082610977565b9050919050565b600073ffffffffffffffffffffffffffffffffffffffff82169050919050565b6000819050919050565b60005b838110156109bf5780820151818401526020810190506109a4565b838111156109ce576000848401525b50505050565b7f4e487b7100000000000000000000000000000000000000000000000000000000600052601160045260246000fd5b7f4e487b7100000000000000000000000000000000000000000000000000000000600052601260045260246000fd5b6000601f19601f8301169050919050565b7f536166654d6174683a206d756c7469706c69636174696f6e206f766572666c6f60008201527f7700000000000000000000000000000000000000000000000000000000000000602082015250565b610a9b81610965565b8114610aa657600080fd5b50565b610ab281610997565b8114610abd57600080fd5b5056fea26469706673582212204a4256a9b5c23d2f0dc529a7160f27e7f8eaa8214652eaf7449118b4124b936064736f6c63430008010033",
  "linkReferences": {},
  "deployedLinkReferences": {}
}